{
  "contractName": "QuickETH",
  "abi": [
    {
      "constant": false,
      "inputs": [
        {
          "name": "_to",
          "type": "address"
        },
        {
          "name": "_tokenId",
          "type": "uint256"
        }
      ],
      "name": "approve",
      "outputs": [],
      "payable": false,
      "stateMutability": "nonpayable",
      "type": "function"
    },
    {
      "constant": true,
      "inputs": [],
      "name": "getSymbol",
      "outputs": [
        {
          "name": "",
          "type": "string"
        }
      ],
      "payable": false,
      "stateMutability": "pure",
      "type": "function"
    },
    {
      "constant": false,
      "inputs": [
        {
          "name": "ownerOfNewToken",
          "type": "address"
        },
        {
          "name": "amount",
          "type": "uint256"
        },
        {
          "name": "timestamp",
          "type": "uint256"
        }
      ],
      "name": "mint",
      "outputs": [],
      "payable": false,
      "stateMutability": "nonpayable",
      "type": "function"
    },
    {
      "constant": true,
      "inputs": [],
      "name": "getName",
      "outputs": [
        {
          "name": "",
          "type": "string"
        }
      ],
      "payable": false,
      "stateMutability": "pure",
      "type": "function"
    },
    {
      "constant": true,
      "inputs": [],
      "name": "totalSupply",
      "outputs": [
        {
          "name": "",
          "type": "uint256"
        }
      ],
      "payable": false,
      "stateMutability": "view",
      "type": "function"
    },
    {
      "constant": false,
      "inputs": [
        {
          "name": "tokenId",
          "type": "uint256"
        }
      ],
      "name": "revoke",
      "outputs": [],
      "payable": false,
      "stateMutability": "nonpayable",
      "type": "function"
    },
    {
      "constant": true,
      "inputs": [
        {
          "name": "id",
          "type": "uint256"
        }
      ],
      "name": "getTokenTimestamp",
      "outputs": [
        {
          "name": "",
          "type": "uint256"
        }
      ],
      "payable": false,
      "stateMutability": "view",
      "type": "function"
    },
    {
      "constant": true,
      "inputs": [
        {
          "name": "_tokenId",
          "type": "uint256"
        }
      ],
      "name": "approvedFor",
      "outputs": [
        {
          "name": "",
          "type": "address"
        }
      ],
      "payable": false,
      "stateMutability": "view",
      "type": "function"
    },
    {
      "constant": false,
      "inputs": [
        {
          "name": "amt",
          "type": "uint256"
        }
      ],
      "name": "withdraw",
      "outputs": [],
      "payable": false,
      "stateMutability": "nonpayable",
      "type": "function"
    },
    {
      "constant": false,
      "inputs": [
        {
          "name": "tokenId",
          "type": "uint256"
        }
      ],
      "name": "exchange",
      "outputs": [],
      "payable": false,
      "stateMutability": "nonpayable",
      "type": "function"
    },
    {
      "constant": true,
      "inputs": [
        {
          "name": "_owner",
          "type": "address"
        }
      ],
      "name": "tokensOf",
      "outputs": [
        {
          "name": "",
          "type": "uint256[]"
        }
      ],
      "payable": false,
      "stateMutability": "view",
      "type": "function"
    },
    {
      "constant": true,
      "inputs": [
        {
          "name": "_tokenId",
          "type": "uint256"
        }
      ],
      "name": "ownerOf",
      "outputs": [
        {
          "name": "",
          "type": "address"
        }
      ],
      "payable": false,
      "stateMutability": "view",
      "type": "function"
    },
    {
      "constant": true,
      "inputs": [
        {
          "name": "_owner",
          "type": "address"
        }
      ],
      "name": "balanceOf",
      "outputs": [
        {
          "name": "",
          "type": "uint256"
        }
      ],
      "payable": false,
      "stateMutability": "view",
      "type": "function"
    },
    {
      "constant": true,
      "inputs": [],
      "name": "owner",
      "outputs": [
        {
          "name": "",
          "type": "address"
        }
      ],
      "payable": false,
      "stateMutability": "view",
      "type": "function"
    },
    {
      "constant": true,
      "inputs": [],
      "name": "NAME",
      "outputs": [
        {
          "name": "",
          "type": "string"
        }
      ],
      "payable": false,
      "stateMutability": "view",
      "type": "function"
    },
    {
      "constant": false,
      "inputs": [
        {
          "name": "_to",
          "type": "address"
        },
        {
          "name": "_tokenId",
          "type": "uint256"
        }
      ],
      "name": "transfer",
      "outputs": [],
      "payable": false,
      "stateMutability": "nonpayable",
      "type": "function"
    },
    {
      "constant": true,
      "inputs": [],
      "name": "availableBalance",
      "outputs": [
        {
          "name": "",
          "type": "uint256"
        }
      ],
      "payable": false,
      "stateMutability": "view",
      "type": "function"
    },
    {
      "constant": false,
      "inputs": [
        {
          "name": "_tokenId",
          "type": "uint256"
        }
      ],
      "name": "takeOwnership",
      "outputs": [],
      "payable": false,
      "stateMutability": "nonpayable",
      "type": "function"
    },
    {
      "constant": true,
      "inputs": [
        {
          "name": "id",
          "type": "uint256"
        }
      ],
      "name": "getTokenAmount",
      "outputs": [
        {
          "name": "",
          "type": "uint256"
        }
      ],
      "payable": false,
      "stateMutability": "view",
      "type": "function"
    },
    {
      "constant": true,
      "inputs": [
        {
          "name": "",
          "type": "uint256"
        }
      ],
      "name": "qetIndexToOwner",
      "outputs": [
        {
          "name": "",
          "type": "address"
        }
      ],
      "payable": false,
      "stateMutability": "view",
      "type": "function"
    },
    {
      "constant": false,
      "inputs": [
        {
          "name": "newOwner",
          "type": "address"
        }
      ],
      "name": "transferOwnership",
      "outputs": [],
      "payable": false,
      "stateMutability": "nonpayable",
      "type": "function"
    },
    {
      "constant": true,
      "inputs": [],
      "name": "SYMBOL",
      "outputs": [
        {
          "name": "",
          "type": "string"
        }
      ],
      "payable": false,
      "stateMutability": "view",
      "type": "function"
    },
    {
      "inputs": [],
      "payable": false,
      "stateMutability": "nonpayable",
      "type": "constructor"
    },
    {
      "payable": true,
      "stateMutability": "payable",
      "type": "fallback"
    },
    {
      "anonymous": false,
      "inputs": [
        {
          "indexed": true,
          "name": "previousOwner",
          "type": "address"
        },
        {
          "indexed": true,
          "name": "newOwner",
          "type": "address"
        }
      ],
      "name": "OwnershipTransferred",
      "type": "event"
    },
    {
      "anonymous": false,
      "inputs": [
        {
          "indexed": true,
          "name": "_from",
          "type": "address"
        },
        {
          "indexed": true,
          "name": "_to",
          "type": "address"
        },
        {
          "indexed": false,
          "name": "_tokenId",
          "type": "uint256"
        }
      ],
      "name": "Transfer",
      "type": "event"
    },
    {
      "anonymous": false,
      "inputs": [
        {
          "indexed": true,
          "name": "_owner",
          "type": "address"
        },
        {
          "indexed": true,
          "name": "_approved",
          "type": "address"
        },
        {
          "indexed": false,
          "name": "_tokenId",
          "type": "uint256"
        }
      ],
      "name": "Approval",
      "type": "event"
    }
  ],
  "bytecode": "0x60606040526000600655341561001457600080fd5b336000806101000a81548173ffffffffffffffffffffffffffffffffffffffff021916908373ffffffffffffffffffffffffffffffffffffffff160217905550611e28806100636000396000f300606060405260043610610128576000357c0100000000000000000000000000000000000000000000000000000000900463ffffffff168063095ea7b31461019057806315070401146101d2578063156e29f61461026057806317d7de7c146102ab57806318160ddd1461033957806320c5429b1461036257806321a16b0c146103855780632a6dd48f146103bc5780632e1a7d4d1461041f57806353556559146104425780635a3f2672146104655780636352211e146104f357806370a08231146105565780638da5cb5b146105a3578063a3f4df7e146105f8578063a9059cbb14610686578063ab2f0e51146106c8578063b2e6ceeb146106f1578063c2507ac114610714578063f232619f1461074b578063f2fde38b146107ae578063f76f8d78146107e7575b6000809054906101000a900473ffffffffffffffffffffffffffffffffffffffff1673ffffffffffffffffffffffffffffffffffffffff163373ffffffffffffffffffffffffffffffffffffffff1614151561018357600080fd5b3460065401600681905550005b341561019b57600080fd5b6101d0600480803573ffffffffffffffffffffffffffffffffffffffff16906020019091908035906020019091905050610875565b005b34156101dd57600080fd5b6101e5610a08565b6040518080602001828103825283818151815260200191508051906020019080838360005b8381101561022557808201518184015260208101905061020a565b50505050905090810190601f1680156102525780820380516001836020036101000a031916815260200191505b509250505060405180910390f35b341561026b57600080fd5b6102a9600480803573ffffffffffffffffffffffffffffffffffffffff16906020019091908035906020019091908035906020019091905050610a4b565b005b34156102b657600080fd5b6102be610b9a565b6040518080602001828103825283818151815260200191508051906020019080838360005b838110156102fe5780820151818401526020810190506102e3565b50505050905090810190601f16801561032b5780820380516001836020036101000a031916815260200191505b509250505060405180910390f35b341561034457600080fd5b61034c610bdd565b6040518082815260200191505060405180910390f35b341561036d57600080fd5b6103836004808035906020019091905050610be7565b005b341561039057600080fd5b6103a66004808035906020019091905050610cc8565b6040518082815260200191505060405180910390f35b34156103c757600080fd5b6103dd6004808035906020019091905050610d4a565b604051808273ffffffffffffffffffffffffffffffffffffffff1673ffffffffffffffffffffffffffffffffffffffff16815260200191505060405180910390f35b341561042a57600080fd5b6104406004808035906020019091905050610d87565b005b341561044d57600080fd5b6104636004808035906020019091905050610ea1565b005b341561047057600080fd5b61049c600480803573ffffffffffffffffffffffffffffffffffffffff1690602001909190505061107d565b6040518080602001828103825283818151815260200191508051906020019060200280838360005b838110156104df5780820151818401526020810190506104c4565b505050509050019250505060405180910390f35b34156104fe57600080fd5b610514600480803590602001909190505061111a565b604051808273ffffffffffffffffffffffffffffffffffffffff1673ffffffffffffffffffffffffffffffffffffffff16815260200191505060405180910390f35b341561056157600080fd5b61058d600480803573ffffffffffffffffffffffffffffffffffffffff16906020019091905050611198565b6040518082815260200191505060405180910390f35b34156105ae57600080fd5b6105b66111e4565b604051808273ffffffffffffffffffffffffffffffffffffffff1673ffffffffffffffffffffffffffffffffffffffff16815260200191505060405180910390f35b341561060357600080fd5b61060b611209565b6040518080602001828103825283818151815260200191508051906020019080838360005b8381101561064b578082015181840152602081019050610630565b50505050905090810190601f1680156106785780820380516001836020036101000a031916815260200191505b509250505060405180910390f35b341561069157600080fd5b6106c6600480803573ffffffffffffffffffffffffffffffffffffffff16906020019091908035906020019091905050611242565b005b34156106d357600080fd5b6106db611295565b6040518082815260200191505060405180910390f35b34156106fc57600080fd5b610712600480803590602001909190505061129b565b005b341561071f57600080fd5b61073560048080359060200190919050506112c6565b6040518082815260200191505060405180910390f35b341561075657600080fd5b61076c6004808035906020019091905050611348565b604051808273ffffffffffffffffffffffffffffffffffffffff1673ffffffffffffffffffffffffffffffffffffffff16815260200191505060405180910390f35b34156107b957600080fd5b6107e5600480803573ffffffffffffffffffffffffffffffffffffffff1690602001909190505061137b565b005b34156107f257600080fd5b6107fa6114d0565b6040518080602001828103825283818151815260200191508051906020019080838360005b8381101561083a57808201518184015260208101905061081f565b50505050905090810190601f1680156108675780820380516001836020036101000a031916815260200191505b509250505060405180910390f35b6000813373ffffffffffffffffffffffffffffffffffffffff166108988261111a565b73ffffffffffffffffffffffffffffffffffffffff161415156108ba57600080fd5b6108c38361111a565b91508173ffffffffffffffffffffffffffffffffffffffff168473ffffffffffffffffffffffffffffffffffffffff161415151561090057600080fd5b600061090b84610d4a565b73ffffffffffffffffffffffffffffffffffffffff16141580610945575060008473ffffffffffffffffffffffffffffffffffffffff1614155b15610a0257836003600085815260200190815260200160002060006101000a81548173ffffffffffffffffffffffffffffffffffffffff021916908373ffffffffffffffffffffffffffffffffffffffff1602179055508373ffffffffffffffffffffffffffffffffffffffff168273ffffffffffffffffffffffffffffffffffffffff167f8c5be1e5ebec7d5bd14f71427d1e84f3dd0314c0f7b2291e5b200ac8c7c3b925856040518082815260200191505060405180910390a35b50505050565b610a10611cdc565b6040805190810160405280600381526020017f5145540000000000000000000000000000000000000000000000000000000000815250905090565b610a53611cf0565b60008060009054906101000a900473ffffffffffffffffffffffffffffffffffffffff1673ffffffffffffffffffffffffffffffffffffffff163373ffffffffffffffffffffffffffffffffffffffff16141515610ab057600080fd5b600084111515610abf57600080fd5b6006548411151515610ad057600080fd5b6040805190810160405280858152602001848152509150600160078054806001018281610afd9190611d0a565b9160005260206000209060020201600085909190915060008201518160000155602082015181600101555050039050846008600083815260200190815260200160002060006101000a81548173ffffffffffffffffffffffffffffffffffffffff021916908373ffffffffffffffffffffffffffffffffffffffff160217905550610b888582611509565b83600654036006819055505050505050565b610ba2611cdc565b6040805190810160405280600881526020017f517569636b455448000000000000000000000000000000000000000000000000815250905090565b6000600154905090565b6000809054906101000a900473ffffffffffffffffffffffffffffffffffffffff1673ffffffffffffffffffffffffffffffffffffffff163373ffffffffffffffffffffffffffffffffffffffff16141515610c4257600080fd5b600781815481101515610c5157fe5b90600052602060002090600202016001015442101515610c7057600080fd5b6000600782815481101515610c8157fe5b9060005260206000209060020201600001819055506000600782815481101515610ca757fe5b906000526020600020906002020160010181905550610cc5816115a3565b50565b6000806008600084815260200190815260200160002060009054906101000a900473ffffffffffffffffffffffffffffffffffffffff1673ffffffffffffffffffffffffffffffffffffffff1614151515610d2257600080fd5b600782815481101515610d3157fe5b9060005260206000209060020201600101549050919050565b60006003600083815260200190815260200160002060009054906101000a900473ffffffffffffffffffffffffffffffffffffffff169050919050565b6000809054906101000a900473ffffffffffffffffffffffffffffffffffffffff1673ffffffffffffffffffffffffffffffffffffffff163373ffffffffffffffffffffffffffffffffffffffff16141515610de257600080fd5b66b1a2bc2ec500003073ffffffffffffffffffffffffffffffffffffffff1631111515610e0e57600080fd5b66b1a2bc2ec500003073ffffffffffffffffffffffffffffffffffffffff1631038111151515610e3d57600080fd5b6000809054906101000a900473ffffffffffffffffffffffffffffffffffffffff1673ffffffffffffffffffffffffffffffffffffffff166108fc829081150290604051600060405180830381858888f193505050501515610e9e57600080fd5b50565b6000806008600084815260200190815260200160002060009054906101000a900473ffffffffffffffffffffffffffffffffffffffff16915060003373ffffffffffffffffffffffffffffffffffffffff1614151515610f0057600080fd5b3373ffffffffffffffffffffffffffffffffffffffff168273ffffffffffffffffffffffffffffffffffffffff161480610f8657503373ffffffffffffffffffffffffffffffffffffffff166000809054906101000a900473ffffffffffffffffffffffffffffffffffffffff1673ffffffffffffffffffffffffffffffffffffffff16145b1515610f9157600080fd5b600783815481101515610fa057fe5b9060005260206000209060020201600101544210151515610fc057600080fd5b600783815481101515610fcf57fe5b90600052602060002090600202016000015490506000600784815481101515610ff457fe5b906000526020600020906002020160000181905550600060078481548110151561101a57fe5b906000526020600020906002020160010181905550611038836115a3565b8173ffffffffffffffffffffffffffffffffffffffff166108fc829081150290604051600060405180830381858888f19350505050151561107857600080fd5b505050565b611085611d3c565b600460008373ffffffffffffffffffffffffffffffffffffffff1673ffffffffffffffffffffffffffffffffffffffff16815260200190815260200160002080548060200260200160405190810160405280929190818152602001828054801561110e57602002820191906000526020600020905b8154815260200190600101908083116110fa575b50505050509050919050565b6000806002600084815260200190815260200160002060009054906101000a900473ffffffffffffffffffffffffffffffffffffffff169050600073ffffffffffffffffffffffffffffffffffffffff168173ffffffffffffffffffffffffffffffffffffffff161415151561118f57600080fd5b80915050919050565b6000600460008373ffffffffffffffffffffffffffffffffffffffff1673ffffffffffffffffffffffffffffffffffffffff168152602001908152602001600020805490509050919050565b6000809054906101000a900473ffffffffffffffffffffffffffffffffffffffff1681565b6040805190810160405280600881526020017f517569636b45544800000000000000000000000000000000000000000000000081525081565b803373ffffffffffffffffffffffffffffffffffffffff166112638261111a565b73ffffffffffffffffffffffffffffffffffffffff1614151561128557600080fd5b611290338484611641565b505050565b60065481565b6112a5338261178a565b15156112b057600080fd5b6112c36112bc8261111a565b3383611641565b50565b6000806008600084815260200190815260200160002060009054906101000a900473ffffffffffffffffffffffffffffffffffffffff1673ffffffffffffffffffffffffffffffffffffffff161415151561132057600080fd5b60078281548110151561132f57fe5b9060005260206000209060020201600001549050919050565b60086020528060005260406000206000915054906101000a900473ffffffffffffffffffffffffffffffffffffffff1681565b6000809054906101000a900473ffffffffffffffffffffffffffffffffffffffff1673ffffffffffffffffffffffffffffffffffffffff163373ffffffffffffffffffffffffffffffffffffffff161415156113d657600080fd5b600073ffffffffffffffffffffffffffffffffffffffff168173ffffffffffffffffffffffffffffffffffffffff161415151561141257600080fd5b8073ffffffffffffffffffffffffffffffffffffffff166000809054906101000a900473ffffffffffffffffffffffffffffffffffffffff1673ffffffffffffffffffffffffffffffffffffffff167f8be0079c531659141344cd1fd0a4f28419497f9722a3daafe3b4186f6b6457e060405160405180910390a3806000806101000a81548173ffffffffffffffffffffffffffffffffffffffff021916908373ffffffffffffffffffffffffffffffffffffffff16021790555050565b6040805190810160405280600381526020017f514554000000000000000000000000000000000000000000000000000000000081525081565b600073ffffffffffffffffffffffffffffffffffffffff168273ffffffffffffffffffffffffffffffffffffffff161415151561154557600080fd5b61154f82826117cb565b8173ffffffffffffffffffffffffffffffffffffffff1660007fddf252ad1be2c89b69c2b068fc378daa952ba7f163c4a11628f55a4df523b3ef836040518082815260200191505060405180910390a35050565b60006115ae8261111a565b905060006115bb83610d4a565b73ffffffffffffffffffffffffffffffffffffffff161415156115e3576115e28183611935565b5b6115ed8183611a1e565b60008173ffffffffffffffffffffffffffffffffffffffff167fddf252ad1be2c89b69c2b068fc378daa952ba7f163c4a11628f55a4df523b3ef846040518082815260200191505060405180910390a35050565b600073ffffffffffffffffffffffffffffffffffffffff168273ffffffffffffffffffffffffffffffffffffffff161415151561167d57600080fd5b6116868161111a565b73ffffffffffffffffffffffffffffffffffffffff168273ffffffffffffffffffffffffffffffffffffffff16141515156116c057600080fd5b8273ffffffffffffffffffffffffffffffffffffffff166116e08261111a565b73ffffffffffffffffffffffffffffffffffffffff1614151561170257600080fd5b61170c8382611935565b6117168382611a1e565b61172082826117cb565b8173ffffffffffffffffffffffffffffffffffffffff168373ffffffffffffffffffffffffffffffffffffffff167fddf252ad1be2c89b69c2b068fc378daa952ba7f163c4a11628f55a4df523b3ef836040518082815260200191505060405180910390a3505050565b60008273ffffffffffffffffffffffffffffffffffffffff166117ac83610d4a565b73ffffffffffffffffffffffffffffffffffffffff1614905092915050565b60008073ffffffffffffffffffffffffffffffffffffffff166002600084815260200190815260200160002060009054906101000a900473ffffffffffffffffffffffffffffffffffffffff1673ffffffffffffffffffffffffffffffffffffffff1614151561183a57600080fd5b826002600084815260200190815260200160002060006101000a81548173ffffffffffffffffffffffffffffffffffffffff021916908373ffffffffffffffffffffffffffffffffffffffff16021790555061189583611198565b9050600460008473ffffffffffffffffffffffffffffffffffffffff1673ffffffffffffffffffffffffffffffffffffffff16815260200190815260200160002080548060010182816118e89190611d50565b91600052602060002090016000849091909150555080600560008481526020019081526020016000208190555061192a60018054611ca590919063ffffffff16565b600181905550505050565b8173ffffffffffffffffffffffffffffffffffffffff166119558261111a565b73ffffffffffffffffffffffffffffffffffffffff1614151561197757600080fd5b60006003600083815260200190815260200160002060006101000a81548173ffffffffffffffffffffffffffffffffffffffff021916908373ffffffffffffffffffffffffffffffffffffffff16021790555060008273ffffffffffffffffffffffffffffffffffffffff167f8c5be1e5ebec7d5bd14f71427d1e84f3dd0314c0f7b2291e5b200ac8c7c3b925836040518082815260200191505060405180910390a35050565b60008060008473ffffffffffffffffffffffffffffffffffffffff16611a438561111a565b73ffffffffffffffffffffffffffffffffffffffff16141515611a6557600080fd5b60056000858152602001908152602001600020549250611a976001611a8987611198565b611cc390919063ffffffff16565b9150600460008673ffffffffffffffffffffffffffffffffffffffff1673ffffffffffffffffffffffffffffffffffffffff16815260200190815260200160002082815481101515611ae557fe5b906000526020600020900154905060006002600086815260200190815260200160002060006101000a81548173ffffffffffffffffffffffffffffffffffffffff021916908373ffffffffffffffffffffffffffffffffffffffff16021790555080600460008773ffffffffffffffffffffffffffffffffffffffff1673ffffffffffffffffffffffffffffffffffffffff16815260200190815260200160002084815481101515611b9357fe5b9060005260206000209001819055506000600460008773ffffffffffffffffffffffffffffffffffffffff1673ffffffffffffffffffffffffffffffffffffffff16815260200190815260200160002083815481101515611bf057fe5b906000526020600020900181905550600460008673ffffffffffffffffffffffffffffffffffffffff1673ffffffffffffffffffffffffffffffffffffffff168152602001908152602001600020805480919060019003611c519190611d7c565b5060006005600086815260200190815260200160002081905550826005600083815260200190815260200160002081905550611c9860018054611cc390919063ffffffff16565b6001819055505050505050565b6000808284019050838110151515611cb957fe5b8091505092915050565b6000828211151515611cd157fe5b818303905092915050565b602060405190810160405280600081525090565b604080519081016040528060008152602001600081525090565b815481835581811511611d3757600202816002028360005260206000209182019101611d369190611da8565b5b505050565b602060405190810160405280600081525090565b815481835581811511611d7757818360005260206000209182019101611d769190611dd7565b5b505050565b815481835581811511611da357818360005260206000209182019101611da29190611dd7565b5b505050565b611dd491905b80821115611dd057600080820160009055600182016000905550600201611dae565b5090565b90565b611df991905b80821115611df5576000816000905550600101611ddd565b5090565b905600a165627a7a72305820458b323fd1ab088df5e9e0cdcd90c8a2cfe677026f7e3e1be4c76bda2b3a62ec0029",
  "source": "pragma solidity ^0.4.18;\n\nimport 'zeppelin-solidity/contracts/math/SafeMath.sol';\nimport 'zeppelin-solidity/contracts/token/ERC721/ERC721.sol';\nimport 'zeppelin-solidity/contracts/ownership/Ownable.sol';\n\ncontract QuickETH is ERC721, Ownable {\n  using SafeMath for uint256;\n\n\n  // Since making the token revocable technically breaks the ERC721 standard,\n  // we cannot inherit from ERC721Token. We'll use the interface from ERC721,\n  // but we need to be able to have the QuickETH contract owner revoke the\n  // tokens.\n\n\n  // Total amount of tokens\n  uint256 private totalTokens;\n\n  // Mapping from token ID to owner\n  mapping (uint256 => address) private tokenOwner;\n\n  // Mapping from token ID to approved address\n  mapping (uint256 => address) private tokenApprovals;\n\n  // Mapping from owner to list of owned token IDs\n  mapping (address => uint256[]) private ownedTokens;\n\n  // Mapping from token ID to index of the owner tokens list\n  mapping(uint256 => uint256) private ownedTokensIndex;\n\n  /**\n  * @dev Guarantees msg.sender is owner of the given token\n  * @param _tokenId uint256 ID of the token to validate its ownership belongs to msg.sender\n  */\n  modifier onlyOwnerOf(uint256 _tokenId) {\n    require(ownerOf(_tokenId) == msg.sender);\n    _;\n  }\n\n  /**\n  * @dev Gets the total amount of tokens stored by the contract\n  * @return uint256 representing the total amount of tokens\n  */\n  function totalSupply() public view returns (uint256) {\n    return totalTokens;\n  }\n\n  /**\n  * @dev Gets the balance of the specified address\n  * @param _owner address to query the balance of\n  * @return uint256 representing the amount owned by the passed address\n  */\n  function balanceOf(address _owner) public view returns (uint256) {\n    return ownedTokens[_owner].length;\n  }\n\n  /**\n  * @dev Gets the list of tokens owned by a given address\n  * @param _owner address to query the tokens of\n  * @return uint256[] representing the list of tokens owned by the passed address\n  */\n  function tokensOf(address _owner) public view returns (uint256[]) {\n    return ownedTokens[_owner];\n  }\n\n  /**\n  * @dev Gets the owner of the specified token ID\n  * @param _tokenId uint256 ID of the token to query the owner of\n  * @return owner address currently marked as the owner of the given token ID\n  */\n  function ownerOf(uint256 _tokenId) public view returns (address) {\n    address owner = tokenOwner[_tokenId];\n    require(owner != address(0));\n    return owner;\n  }\n\n  /**\n   * @dev Gets the approved address to take ownership of a given token ID\n   * @param _tokenId uint256 ID of the token to query the approval of\n   * @return address currently approved to take ownership of the given token ID\n   */\n  function approvedFor(uint256 _tokenId) public view returns (address) {\n    return tokenApprovals[_tokenId];\n  }\n\n  /**\n  * @dev Transfers the ownership of a given token ID to another address\n  * @param _to address to receive the ownership of the given token ID\n  * @param _tokenId uint256 ID of the token to be transferred\n  */\n  function transfer(address _to, uint256 _tokenId) public onlyOwnerOf(_tokenId) {\n    clearApprovalAndTransfer(msg.sender, _to, _tokenId);\n  }\n\n  /**\n  * @dev Approves another address to claim for the ownership of the given token ID\n  * @param _to address to be approved for the given token ID\n  * @param _tokenId uint256 ID of the token to be approved\n  */\n  function approve(address _to, uint256 _tokenId) public onlyOwnerOf(_tokenId) {\n    address owner = ownerOf(_tokenId);\n    require(_to != owner);\n    if (approvedFor(_tokenId) != 0 || _to != 0) {\n      tokenApprovals[_tokenId] = _to;\n      Approval(owner, _to, _tokenId);\n    }\n  }\n\n  /**\n  * @dev Claims the ownership of a given token ID\n  * @param _tokenId uint256 ID of the token being claimed by the msg.sender\n  */\n  function takeOwnership(uint256 _tokenId) public {\n    require(isApprovedFor(msg.sender, _tokenId));\n    clearApprovalAndTransfer(ownerOf(_tokenId), msg.sender, _tokenId);\n  }\n\n  /**\n  * @dev Mint token function\n  * @param _to The address that will own the minted token\n  * @param _tokenId uint256 ID of the token to be minted by the msg.sender\n  */\n  function _mint(address _to, uint256 _tokenId) internal {\n    require(_to != address(0));\n    addToken(_to, _tokenId);\n    Transfer(0x0, _to, _tokenId);\n  }\n\n  \n  /**\n   * @dev Tells whether the msg.sender is approved for the given token ID or not\n   * This function is not private so it can be extended in further implementations like the operatable ERC721\n   * @param _owner address of the owner to query the approval of\n   * @param _tokenId uint256 ID of the token to query the approval of\n   * @return bool whether the msg.sender is approved for the given token ID or not\n   */\n  function isApprovedFor(address _owner, uint256 _tokenId) internal view returns (bool) {\n    return approvedFor(_tokenId) == _owner;\n  }\n\n  /**\n  * @dev Internal function to clear current approval and transfer the ownership of a given token ID\n  * @param _from address which you want to send tokens from\n  * @param _to address which you want to transfer the token to\n  * @param _tokenId uint256 ID of the token to be transferred\n  */\n  function clearApprovalAndTransfer(address _from, address _to, uint256 _tokenId) internal {\n    require(_to != address(0));\n    require(_to != ownerOf(_tokenId));\n    require(ownerOf(_tokenId) == _from);\n\n    clearApproval(_from, _tokenId);\n    removeToken(_from, _tokenId);\n    addToken(_to, _tokenId);\n    Transfer(_from, _to, _tokenId);\n  }\n\n  /**\n  * @dev Internal function to clear current approval of a given token ID\n  * @param _tokenId uint256 ID of the token to be transferred\n  */\n  function clearApproval(address _owner, uint256 _tokenId) private {\n    require(ownerOf(_tokenId) == _owner);\n    tokenApprovals[_tokenId] = 0;\n    Approval(_owner, 0, _tokenId);\n  }\n\n  /**\n  * @dev Internal function to add a token ID to the list of a given address\n  * @param _to address representing the new owner of the given token ID\n  * @param _tokenId uint256 ID of the token to be added to the tokens list of the given address\n  */\n  function addToken(address _to, uint256 _tokenId) private {\n    require(tokenOwner[_tokenId] == address(0));\n    tokenOwner[_tokenId] = _to;\n    uint256 length = balanceOf(_to);\n    ownedTokens[_to].push(_tokenId);\n    ownedTokensIndex[_tokenId] = length;\n    totalTokens = totalTokens.add(1);\n  }\n\n  /**\n  * @dev Internal function to remove a token ID from the list of a given address\n  * @param _from address representing the previous owner of the given token ID\n  * @param _tokenId uint256 ID of the token to be removed from the tokens list of the given address\n  */\n  function removeToken(address _from, uint256 _tokenId) private {\n    require(ownerOf(_tokenId) == _from);\n\n    uint256 tokenIndex = ownedTokensIndex[_tokenId];\n    uint256 lastTokenIndex = balanceOf(_from).sub(1);\n    uint256 lastToken = ownedTokens[_from][lastTokenIndex];\n\n    tokenOwner[_tokenId] = 0;\n    ownedTokens[_from][tokenIndex] = lastToken;\n    ownedTokens[_from][lastTokenIndex] = 0;\n    // Note that this will handle single-element arrays. In that case, both tokenIndex and lastTokenIndex are going to\n    // be zero. Then we can make sure that we will remove _tokenId from the ownedTokens list since we are first swapping\n    // the lastToken to the first position, and then dropping the element placed in the last position of the list\n\n    ownedTokens[_from].length--;\n    ownedTokensIndex[_tokenId] = 0;\n    ownedTokensIndex[lastToken] = tokenIndex;\n    totalTokens = totalTokens.sub(1);\n  }\n\n\n  // *** This is the function we need to change. Gotta make it so the\n  // QuickETH contract owner can burn. Since this function is internal,\n  // it is ok to remove the onlyOwnerOf modifier as long as we are\n  // ridiculously good looki-- I mean careful. Ridiculously careful.\n\n  /**\n  * @dev Burns a specific token\n  * @param _tokenId uint256 ID of the token being burned by the msg.sender\n  */\n  function _burn(uint256 _tokenId) internal {\n    address ownerOfToken = ownerOf(_tokenId);\n\n    if (approvedFor(_tokenId) != 0) {\n      clearApproval(ownerOfToken, _tokenId);\n    }\n    removeToken(ownerOfToken, _tokenId);\n    Transfer(ownerOfToken, 0x0, _tokenId);\n  }\n\n\n  // Beginning of our awesome code!\n\n\n  string constant public NAME = \"QuickETH\";\n  string constant public SYMBOL = \"QET\";\n\n  uint256 public availableBalance = 0;\n\n  /**\n   * @dev This is the non-standard part of the NFT.\n   * Each one has an amount in ETH and a timestamp\n   * after which the token can be converted into\n   * ETH and burned.\n   */\n  struct QET {\n    uint256 amount;\n    uint revocationPeriodExpiresAt;\n  }\n\n  /**\n   * Our mapping of token id to token metadata.\n   * The ERC721Token that we inherit from handles\n   * the ownership, which is why you haven't seen\n   * any addresses here or in the struct itself.\n   */ \n  QET[] qets;\n  mapping(uint256 => address) public qetIndexToOwner;\n\n  /**\n   * @dev  Only owner can fund the contract \n   */ \n  function QuickETH() public {\n  }\n\n  function () public payable onlyOwner {\n    availableBalance = availableBalance + msg.value;\n  }\n\n  function getName() public pure returns(string){\n    return NAME;\n  }\n\n  function getSymbol() public pure returns(string) {\n    return SYMBOL;\n  }\n\n  function withdraw(uint256 amt) public onlyOwner {\n    require(this.balance > 0.05 ether);\n    require(amt <= (this.balance - 0.05 ether));\n    owner.transfer(amt);\n  }\n\n  function getTokenAmount(uint256 id) public view returns(uint256) {\n    require(qetIndexToOwner[id] != 0);\n    return qets[id].amount;\n  }\n  \n  function getTokenTimestamp(uint256 id) public view returns(uint) {\n    require(qetIndexToOwner[id] != 0);\n    return qets[id].revocationPeriodExpiresAt;\n  }\n\n  /**\n   * @dev only the owner can mint a new token, and there\n   * needs to be enough available funds\n   */\n  function mint(address ownerOfNewToken, uint256 amount, uint256 timestamp)\n    public\n    onlyOwner\n  {\n    require(amount > 0); \n    require(amount <= availableBalance);\n\n    QET memory qet = QET({\n      amount: amount,\n      revocationPeriodExpiresAt: timestamp\n    });\n\n    uint256 newTokenId = qets.push(qet) - 1;\n    \n    qetIndexToOwner[newTokenId] = ownerOfNewToken;\n\n    _mint(ownerOfNewToken, newTokenId);\n    \n    availableBalance = availableBalance - amount;\n  }\n\n  /**\n   * @dev Once the recovation period has expired,\n   * burn the token and transfer the eth to the\n   * owber of tge token. This can be called by the\n   * token owner or the contract owner. The latter\n   * enables us to give our users the option to have\n   * us automatically send them ether. Makes\n   * integration easier.\n   */\n  function exchange(uint256 tokenId) public {\n    address _tokenOwner = qetIndexToOwner[tokenId];\n    require(msg.sender != 0);\n    require((_tokenOwner == msg.sender) || (owner == msg.sender));\n    require(block.timestamp >= qets[tokenId].revocationPeriodExpiresAt);\n    \n    uint256 amount = qets[tokenId].amount;\n    qets[tokenId].amount = 0;\n    qets[tokenId].revocationPeriodExpiresAt = 0;\n\n    _burn(tokenId);\n    _tokenOwner.transfer(amount);\n  }\n\n  /**\n   * @dev revoke a token, but keep track of it JIC\n   */\n  function revoke(uint256 tokenId) public onlyOwner {\n    require(now < qets[tokenId].revocationPeriodExpiresAt);\n\n    qets[tokenId].amount = 0;\n    qets[tokenId].revocationPeriodExpiresAt = 0;\n\n    _burn(tokenId);\n  }\n}\n",
  "sourcePath": "/Users/ryan/code/quicketh/contracts/QuickETH.sol",
  "compiler": {
    "name": "solc",
    "version": "0.4.18+commit.9cf6e910.Emscripten.clang"
  },
  "schemaVersion": "1.0.1",
  "updatedAt": "2018-02-17T21:05:02.569Z"
}